:020000040000FA
:100000000128850186018316083081000C308400A8
:100010008001840A041F0828041E08288601061788
:10002000850106178312861698019B019A01990192
:10003000940195011B286423C0212B22CC22202867
:10004000AD22722295013C309400E32118085A2217
:1000500001309500E3211B085A2202309500E3216C
:100060001A085A2203309500E32119085A22332333
:10007000DA2320280130ED210130ED217F30ED2100
:100080000130ED210130ED210301ED2108007F3029
:10009000ED210830ED210430ED210430ED217830E0
:1000A000ED210301ED2108007C30ED210830ED2128
:1000B0000430ED210430ED210830ED210301ED2164
:1000C00008003830ED214430ED214430ED2144303A
:1000D000ED213830ED210301ED2108000430ED2140
:1000E0003F30ED214430ED214030ED212030ED2135
:1000F0000301ED2108000030ED214130ED217F307A
:10010000ED214030ED210030ED210301ED2108000B
:100110003830ED215430ED215430ED215430ED21B3
:100120001830ED210301ED2108007F30ED21093069
:10013000ED210930ED210930ED210630ED210301DB
:10014000ED2108000030ED214430ED217D30ED211E
:100150004030ED210030ED210301ED210800383061
:10016000ED214430ED214430ED214430ED212030AB
:10017000ED210301ED2108007F30ED210930ED2153
:100180001930ED212930ED214630ED210301ED211B
:1001900008000330ED210430ED217830ED210430EA
:1001A000ED210330ED210301ED2108002030ED2188
:1001B0005430ED215430ED215430ED217830ED21D3
:1001C0000301ED2108003C30ED214030ED213030BD
:1001D000ED214030ED213C30ED210301ED210800FF
:1001E0003830ED214430ED214430ED214830ED210F
:1001F0007F30ED210301ED2108004430ED2128304E
:10020000ED211030ED212830ED214430ED210301A6
:10021000ED2108003E30ED214130ED214130ED214E
:100220005130ED213230ED210301ED2108007F3006
:10023000ED210230ED210430ED210230ED217F303F
:10024000ED210301ED2108003E30ED215130ED217B
:100250004930ED214530ED213E30ED210301ED2106
:1002600008000030ED214230ED217F30ED2140309B
:10027000ED210030ED210301ED2108004230ED2198
:100280006130ED215130ED214930ED214630ED2135
:100290000301ED2108002130ED214130ED214530F1
:1002A000ED214B30ED213130ED210301ED2108002E
:1002B0001830ED211430ED211230ED217F30ED2189
:1002C0001030ED210301ED2108002730ED214530EC
:1002D000ED214530ED214530ED213930ED2103018F
:1002E000ED2108003C30ED214A30ED214930ED216F
:1002F0004930ED213030ED210301ED2108000130BE
:10030000ED217130ED210930ED210530ED21033073
:10031000ED210301ED2108003630ED214930ED21BA
:100320004930ED214930ED213630ED210301ED2139
:1003300008000630ED214930ED214930ED2129300A
:10034000ED211E30ED210301ED2108000830ED21E3
:100350000830ED210830ED210830ED210830ED2185
:100360000301ED2108000830ED210830ED21363081
:10037000ED210830ED210830ED210301ED210800C9
:10038000861406158610DA2386142130EA211330EC
:10039000EA21C230EA212030EA210930EA21D721BE
:1003A0000830EA210C30EA21DA23E3210800E321B6
:1003B00010309600483097000301ED21970BDC299F
:1003C000960BDA29080014088038EA21150840380D
:1003D000EA2108008611F02108008615F0210800A6
:1003E000920008309100930106110610921F8613A7
:1003F000921B86170614910BFE29002A920DF529EF
:10040000061508000C08003C031924210C08013CC7
:10041000031931210C08023C03193E210C08033C4E
:1004200003194B210C08043C031958210C08053C06
:10043000031965210C08063C031972210C08073CBE
:1004400003197F210C08083C03198C210C08093C76
:10045000031999210800E3213A2047205420612004
:100460006E206E207B20882001309500E3219520AE
:10047000A2206E20AF20472002309500E321BC204F
:1004800061207B207B2003309500E321C920D6200A
:10049000E3200830940005309500E321FD20A621DB
:1004A0009520542061200A215420D620172188202D
:1004B000542008008C018D019600003C961F612A93
:1004C000632AB321652AA62196131608F63E031C5B
:1004D0006B2A8C0A662A0A3E8D0002220D088C00C7
:1004E0000222080032308D002108E4230F18980200
:1004F0000F1C9807981B98011808633C0318822A60
:100500006330980004308D001F08E42399001E3CDE
:1005100003188C2A1E3099000F1899130F1C991775
:1005200004308D002008E4239B001E3C03189A2A07
:100530001E309B000F189B170F1C9B1304308D005F
:100540001E08E4239A001E3C0318A82A1E309A00B5
:100550000F189A130F1C9A1708000612D523D523DB
:1005600001301D2342301D2300301D2300301D2388
:100570009D0000301D239C0000301D239E00003094
:100580001D23A00000301D239F0000301D23A1006B
:10059000D523D523061608000612D523D52301300E
:1005A0001D2342301D2300301D2300301D23003049
:1005B0001D23D523D52306160612D523D5230130B6
:1005C0001D2343301D2300301D2301301D23003027
:1005D0001D23D523D52306160612D523D523013096
:1005E0001D2344301D2300301D2301301D23033003
:1005F0001D2300301D2300301D2300301D2300303B
:100600001D23D523D52306160612D523D523013065
:100610001D2343301D2300301D2300301D235A307D
:100620001D235A301D235A301D235A301D235A30A2
:100630001D23D523D523061608009200083091000B
:100640009301121C8613121886178612D523061BD7
:1006500093178616D523910B2E2B312B920C930CCE
:10066000212B130808008511E130BF238515851162
:10067000A030BF231808BF231B08BF231A08BF23BD
:100680001908BF231D08BF231C08BF2385150515A6
:10069000DA230511DA2385112030BF231C30BF2354
:1006A000851585112730BF237030BF23851585112F
:1006B0002030BF231E30BF2385158511E230BF23B4
:1006C000E130BF23851508000511851585112730F8
:1006D000BF237030BF23851585112030BF231C3008
:1006E000BF23851585112A30BF239A30BF23FE30E2
:1006F000BF23BF30BF23ED30BF230C30BF23851590
:1007000085113030BF239A30BF23FE30BF23BF3066
:10071000BF23ED30BF230C30BF2385158511233057
:10072000BF230330BF23851585112530BF233B3000
:10073000BF23851585112430BF23FF30BF238515C6
:1007400085112630BF232630BF2385158511313012
:10075000BF230730BF23851585111C30BF23003010
:10076000BF23851585112030BF231E30BF2385157B
:100770008511E230BF23E130BF23851508009200C8
:10078000083091009301921F0510921B05148514E7
:10079000061B1314061F13108510910BD02BD32B9F
:1007A000920D930DC32B130808000F309600960B83
:1007B000D72B080064309600FA3097000000970BA2
:1007C000DE2B960BDC2B08008E018C007B3C031982
:1007D000FA2B031CEC2BF02B7B308C020F14F32B29
:1007E0008C008C000F100D080C02031CFA2B8C00DF
:0807F0008E0AF32B0E0808002D
:0407F8000034003495
:02400E00F23F7F
:00000001FF
